:020000040000FA
:1000000002000E010C00C100C101000200E3787F74
:10001000E4F6D8FD758120020055020122E493A385
:10002000F8E493A34003F68001F208DFF48029E4AA
:1000300093A3F85407240CC8C333C4540F4420C8F6
:10004000834004F456800146F6DFE4800B0102048D
:100050000810204080900003E47E019360BCA3FF61
:10006000543F30E509541FFEE493A360010ECF54C2
:10007000C025E060A840B8E493A3FAE493A3F8E4B1
:1000800093A3C8C582C8CAC583CAF0A3C8C582C81D
:10009000CAC583CADFE9DEE780BE7597A5E4F50B24
:1000A000F50AF509F508E47FCCFEFDFCAB0BAA0AC6
:1000B000A909A808C3120161501800E50B2401F535
:1000C0000BE4350AF50AE43509F509E43508F508C5
:1000D00080D4A2AF9202C2AF7597DE7597ADA2022F
:1000E00092AF22C0E0C0D0C28D30001420011105B3
:1000F0000CD3E50C94C8748094804004D201C2945F
:10010000D0D0D0E032E4FFFEE4FDFC0DBD00010CD8
:10011000BC01F8BDF4F50FBF00010EBE03EABFE855
:10012000E72212014F120105C294D2002001FDC244
:10013000AF208204D294D201D2AF80F0AF8853882E
:10014000AF758C01EF5440FEEF54104E42882212DE
:10015000009A12018112017912013C12017202010E
:100160007DEB9FF5F0EA9E42F0E99D42F0E89C4568
:10017000F0227589024388102275E3402275A88217
:050180002275A510220C
:00000001FF
