:020000040000FA
:0800000002000E12010080FE57
:10000B000200E3787FE4F6D8FD75812002005502EB
:10001B000003E493A3F8E493A34003F68001F208F2
:10002B00DFF48029E493A3F85407240CC8C333C42A
:10003B00540F4420C8834004F456800146F6DFE495
:10004B00800B0102040810204080900133E47E01F4
:10005B009360BCA3FF543F30E509541FFEE493A308
:10006B0060010ECF54C025E060A840B8E493A3FA1A
:10007B00E493A3F8E493A3C8C582C8CAC583CAF0A6
:10008B00A3C8C582C8CAC583CADFE9DEE780BE75CF
:10009B0097A5E4F50BF50AF509F508E47FCCFEFD11
:1000AB00FCAB0BAA0AA909A808C31201125018002D
:1000BB00E50B2401F50BE4350AF50AE43509F509DE
:1000CB00E43508F50880D4A2AF9202C2AF7597DE73
:1000DB007597ADA20292AF22C0E0C0D0C28D050DC4
:1000EB00E50D7002050CB4DC07E50CB40502C294F7
:1000FB00D0D0D0E03212009A1201511201491201F4
:10010B002312013F02014DEB9FF5F0EA9E42F0E90D
:10011B009D42F0E89C45F022AF885388AFEF5440E6
:10012B00FEEF54104E428822020C0000010E00C15B
:10013B0000C18100758E017589024388102275E319
:0A014B00402275A8822275A510223B
:00000001FF
