:020000040000FA
:1000000002002E1201162082FD120125B2943082C8
:10001000FDE4F50C12012580EDEB9FF5F0EA9E4220
:0A002000F0E99D42F0E89C45F02253
:10002B00020131787FE4F6D8FD758120020075025C
:10003B000003E493A3F8E493A34003F68001F208D2
:10004B00DFF48029E493A3F85407240CC8C333C40A
:10005B00540F4420C8834004F456800146F6DFE475
:10006B00800B0102040810204080900142E47E01C5
:10007B009360BCA3FF543F30E509541FFEE493A3E8
:10008B0060010ECF54C025E060A840B8E493A3FAFA
:10009B00E493A3F8E493A3C8C582C8CAC583CAF086
:1000AB00A3C8C582C8CAC583CADFE9DEE780BE75AF
:1000BB0097A5E4F50BF50AF509F508E47FCCFEFDF1
:1000CB00FCAB0BAA0AA909A808C312001950180007
:1000DB00E50B2401F50BE4350AF50AE43509F509BE
:1000EB00E43508F50880D4A2AF9200C2AF7597DE55
:1000FB007597ADA20092AF22E5C8540453C8FB75A7
:10010B00CBF675CA0843C80442C8221200BA1201C2
:10011B003E12013612010302013AC3E50C94057439
:10012B0080948040F522C2CF050C3275E3402275D6
:0B013B00A8A02275A51022010C0000F6
:00000001FF
