:020000040000FA
:1000000002002EE4FEEEC39403748094805011C26B
:10001000947F4B120021D2947F191200210E80E5AB
:1000200022E50CC39F40FAE4F50C22020188787F98
:10003000E4F6D8FD75812002007502017BE493A3EC
:10004000F8E493A34003F68001F208DFF48029E48A
:1000500093A3F85407240CC8C333C4540F4420C8D6
:10006000834004F456800146F6DFE4800B0102046D
:100070000810204080900199E47E019360BCA3FFAA
:10008000543F30E509541FFEE493A360010ECF54A2
:10009000C025E060A840B8E493A3FAE493A3F8E491
:1000A00093A3C8C582C8CAC583CAF0A3C8C582C8FD
:1000B000CAC583CADFE9DEE780BE7597A5E4F50B04
:1000C000F50AF509F508E47FCCFEFDFCAB0BAA0AA6
:1000D000A909A808C312016A501800E50B2401F50C
:1000E0000BE4350AF50AE43509F509E43508F508A5
:1000F00080D4A2AF9200C2AF7597DE7597ADA20013
:1001000092AF22E4FEEEC3940374809480500FC239
:10011000947F19120021D2941200210E80E722AFA1
:10012000885388AF758B01EF5440FEEF54104E4258
:100130008822E5C8540453C8FB75CBF675CA08433A
:10014000C80442C8221201037F19120021120003C1
:100150007F191200210201031200BA120195120147
:100160008D12011F120132020191EB9FF5F0EA9E00
:1001700042F0E99D42F0E89C45F02212015812013C
:10018000457FC812002180F6C2CF050C3275E340CE
:0D0190002275A8A02275A51022010C000008
:00000001FF
