:020000040000FA
:0A00000002000E75890243881022E9
:10000B0002018D787FE4F6D8FD7581200200550240
:10001B0000E3E493A3F8E493A34003F68001F20812
:10002B00DFF48029E493A3F85407240CC8C333C42A
:10003B00540F4420C8834004F456800146F6DFE495
:10004B00800B0102040810204080900173E47E01B4
:10005B009360BCA3FF543F30E509541FFEE493A308
:10006B0060010ECF54C025E060A840B8E493A3FA1A
:10007B00E493A3F8E493A3C8C582C8CAC583CAF0A6
:10008B00A3C8C582C8CAC583CADFE9DEE780BE75CF
:10009B0097A5E4F511F510F50FF50EE47FCCFEFDF9
:1000AB00FCAB11AA10A90FA80EC3120129501800FE
:1000BB00E5112401F511E43510F510E4350FF50FBA
:1000CB00E4350EF50E80D4A2AF9200C2AF7597DE69
:1000DB007597ADA20092AF221201617B007A007975
:1000EB000B12013A2082F4120182050BD3E50B941B
:1000FB0002748094804003E4F50B3082FDE4F50C30
:10010B0012018280D6BB010689828A83E0225002CB
:10011B00E722BBFE02E32289828A83E49322EB9FD0
:10012B00F5F0EA9E42F0E99D42F0E89C45F022B2E0
:10013B00941201102408F8E6FFE50DC39F40F2E48A
:10014B00F50D22AF885388AF758C01EF5440FEEF4D
:10015B0054104E42882212009A12019412019812E6
:10016B00014E12000302019C010C00010D0003085B
:10017B0064320A010B0000C3E50C9432E494004096
:10018B00F622C28D050C050D3275A5102275E340C4
:05019B002275A882227C
:00000001FF
