:020000040000FA
:10000000020086E5C8540453C8FB75CBCE75CA28D8
:1000100043C80442C822EB9FF5F0EA9E42F0E99DF6
:1000200042F0E89C45F02275A510220200927597D7
:10003000A5E4F50BF50AF509F508E47FCCFEFDFC17
:10004000AB0BAA0AA909A808C3120016501800E5AC
:100050000B2401F50BE4350AF50AE43509F509E44A
:100060003508F50880D4A2AF9200C2AF7597DE754F
:1000700097ADA20092AF2212002E1200271200A20A
:100080001200030200A6787FE4F6D8FD75812002F5
:10009000009DC2CF208203B29432D29432120077F4
:0A00A00080FE75E3402275A8A0223F
:00000001FF
